{
  "contractName": "SmartContract",
  "abi": [
    {
      "inputs": [
        {
          "internalType": "string",
          "name": "_name",
          "type": "string"
        },
        {
          "internalType": "string",
          "name": "_symbol",
          "type": "string"
        },
        {
          "internalType": "string",
          "name": "_initBaseURI",
          "type": "string"
        }
      ],
      "stateMutability": "nonpayable",
      "type": "constructor"
    },
    {
      "anonymous": false,
      "inputs": [
        {
          "indexed": true,
          "internalType": "address",
          "name": "owner",
          "type": "address"
        },
        {
          "indexed": true,
          "internalType": "address",
          "name": "approved",
          "type": "address"
        },
        {
          "indexed": true,
          "internalType": "uint256",
          "name": "tokenId",
          "type": "uint256"
        }
      ],
      "name": "Approval",
      "type": "event"
    },
    {
      "anonymous": false,
      "inputs": [
        {
          "indexed": true,
          "internalType": "address",
          "name": "owner",
          "type": "address"
        },
        {
          "indexed": true,
          "internalType": "address",
          "name": "operator",
          "type": "address"
        },
        {
          "indexed": false,
          "internalType": "bool",
          "name": "approved",
          "type": "bool"
        }
      ],
      "name": "ApprovalForAll",
      "type": "event"
    },
    {
      "anonymous": false,
      "inputs": [
        {
          "indexed": true,
          "internalType": "address",
          "name": "previousOwner",
          "type": "address"
        },
        {
          "indexed": true,
          "internalType": "address",
          "name": "newOwner",
          "type": "address"
        }
      ],
      "name": "OwnershipTransferred",
      "type": "event"
    },
    {
      "anonymous": false,
      "inputs": [
        {
          "indexed": true,
          "internalType": "address",
          "name": "from",
          "type": "address"
        },
        {
          "indexed": true,
          "internalType": "address",
          "name": "to",
          "type": "address"
        },
        {
          "indexed": true,
          "internalType": "uint256",
          "name": "tokenId",
          "type": "uint256"
        }
      ],
      "name": "Transfer",
      "type": "event"
    },
    {
      "inputs": [
        {
          "internalType": "address",
          "name": "to",
          "type": "address"
        },
        {
          "internalType": "uint256",
          "name": "tokenId",
          "type": "uint256"
        }
      ],
      "name": "approve",
      "outputs": [],
      "stateMutability": "nonpayable",
      "type": "function"
    },
    {
      "inputs": [
        {
          "internalType": "address",
          "name": "owner",
          "type": "address"
        }
      ],
      "name": "balanceOf",
      "outputs": [
        {
          "internalType": "uint256",
          "name": "",
          "type": "uint256"
        }
      ],
      "stateMutability": "view",
      "type": "function",
      "constant": true
    },
    {
      "inputs": [],
      "name": "baseExtension",
      "outputs": [
        {
          "internalType": "string",
          "name": "",
          "type": "string"
        }
      ],
      "stateMutability": "view",
      "type": "function",
      "constant": true
    },
    {
      "inputs": [],
      "name": "baseURI",
      "outputs": [
        {
          "internalType": "string",
          "name": "",
          "type": "string"
        }
      ],
      "stateMutability": "view",
      "type": "function",
      "constant": true
    },
    {
      "inputs": [],
      "name": "cost",
      "outputs": [
        {
          "internalType": "uint256",
          "name": "",
          "type": "uint256"
        }
      ],
      "stateMutability": "view",
      "type": "function",
      "constant": true
    },
    {
      "inputs": [
        {
          "internalType": "uint256",
          "name": "tokenId",
          "type": "uint256"
        }
      ],
      "name": "getApproved",
      "outputs": [
        {
          "internalType": "address",
          "name": "",
          "type": "address"
        }
      ],
      "stateMutability": "view",
      "type": "function",
      "constant": true
    },
    {
      "inputs": [
        {
          "internalType": "address",
          "name": "owner",
          "type": "address"
        },
        {
          "internalType": "address",
          "name": "operator",
          "type": "address"
        }
      ],
      "name": "isApprovedForAll",
      "outputs": [
        {
          "internalType": "bool",
          "name": "",
          "type": "bool"
        }
      ],
      "stateMutability": "view",
      "type": "function",
      "constant": true
    },
    {
      "inputs": [],
      "name": "maxMintAmount",
      "outputs": [
        {
          "internalType": "uint256",
          "name": "",
          "type": "uint256"
        }
      ],
      "stateMutability": "view",
      "type": "function",
      "constant": true
    },
    {
      "inputs": [],
      "name": "maxSupply",
      "outputs": [
        {
          "internalType": "uint256",
          "name": "",
          "type": "uint256"
        }
      ],
      "stateMutability": "view",
      "type": "function",
      "constant": true
    },
    {
      "inputs": [],
      "name": "name",
      "outputs": [
        {
          "internalType": "string",
          "name": "",
          "type": "string"
        }
      ],
      "stateMutability": "view",
      "type": "function",
      "constant": true
    },
    {
      "inputs": [],
      "name": "owner",
      "outputs": [
        {
          "internalType": "address",
          "name": "",
          "type": "address"
        }
      ],
      "stateMutability": "view",
      "type": "function",
      "constant": true
    },
    {
      "inputs": [
        {
          "internalType": "uint256",
          "name": "tokenId",
          "type": "uint256"
        }
      ],
      "name": "ownerOf",
      "outputs": [
        {
          "internalType": "address",
          "name": "",
          "type": "address"
        }
      ],
      "stateMutability": "view",
      "type": "function",
      "constant": true
    },
    {
      "inputs": [],
      "name": "paused",
      "outputs": [
        {
          "internalType": "bool",
          "name": "",
          "type": "bool"
        }
      ],
      "stateMutability": "view",
      "type": "function",
      "constant": true
    },
    {
      "inputs": [],
      "name": "renounceOwnership",
      "outputs": [],
      "stateMutability": "nonpayable",
      "type": "function"
    },
    {
      "inputs": [
        {
          "internalType": "address",
          "name": "from",
          "type": "address"
        },
        {
          "internalType": "address",
          "name": "to",
          "type": "address"
        },
        {
          "internalType": "uint256",
          "name": "tokenId",
          "type": "uint256"
        }
      ],
      "name": "safeTransferFrom",
      "outputs": [],
      "stateMutability": "nonpayable",
      "type": "function"
    },
    {
      "inputs": [
        {
          "internalType": "address",
          "name": "from",
          "type": "address"
        },
        {
          "internalType": "address",
          "name": "to",
          "type": "address"
        },
        {
          "internalType": "uint256",
          "name": "tokenId",
          "type": "uint256"
        },
        {
          "internalType": "bytes",
          "name": "_data",
          "type": "bytes"
        }
      ],
      "name": "safeTransferFrom",
      "outputs": [],
      "stateMutability": "nonpayable",
      "type": "function"
    },
    {
      "inputs": [
        {
          "internalType": "address",
          "name": "operator",
          "type": "address"
        },
        {
          "internalType": "bool",
          "name": "approved",
          "type": "bool"
        }
      ],
      "name": "setApprovalForAll",
      "outputs": [],
      "stateMutability": "nonpayable",
      "type": "function"
    },
    {
      "inputs": [
        {
          "internalType": "bytes4",
          "name": "interfaceId",
          "type": "bytes4"
        }
      ],
      "name": "supportsInterface",
      "outputs": [
        {
          "internalType": "bool",
          "name": "",
          "type": "bool"
        }
      ],
      "stateMutability": "view",
      "type": "function",
      "constant": true
    },
    {
      "inputs": [],
      "name": "symbol",
      "outputs": [
        {
          "internalType": "string",
          "name": "",
          "type": "string"
        }
      ],
      "stateMutability": "view",
      "type": "function",
      "constant": true
    },
    {
      "inputs": [
        {
          "internalType": "uint256",
          "name": "index",
          "type": "uint256"
        }
      ],
      "name": "tokenByIndex",
      "outputs": [
        {
          "internalType": "uint256",
          "name": "",
          "type": "uint256"
        }
      ],
      "stateMutability": "view",
      "type": "function",
      "constant": true
    },
    {
      "inputs": [
        {
          "internalType": "address",
          "name": "owner",
          "type": "address"
        },
        {
          "internalType": "uint256",
          "name": "index",
          "type": "uint256"
        }
      ],
      "name": "tokenOfOwnerByIndex",
      "outputs": [
        {
          "internalType": "uint256",
          "name": "",
          "type": "uint256"
        }
      ],
      "stateMutability": "view",
      "type": "function",
      "constant": true
    },
    {
      "inputs": [],
      "name": "totalSupply",
      "outputs": [
        {
          "internalType": "uint256",
          "name": "",
          "type": "uint256"
        }
      ],
      "stateMutability": "view",
      "type": "function",
      "constant": true
    },
    {
      "inputs": [
        {
          "internalType": "address",
          "name": "from",
          "type": "address"
        },
        {
          "internalType": "address",
          "name": "to",
          "type": "address"
        },
        {
          "internalType": "uint256",
          "name": "tokenId",
          "type": "uint256"
        }
      ],
      "name": "transferFrom",
      "outputs": [],
      "stateMutability": "nonpayable",
      "type": "function"
    },
    {
      "inputs": [
        {
          "internalType": "address",
          "name": "newOwner",
          "type": "address"
        }
      ],
      "name": "transferOwnership",
      "outputs": [],
      "stateMutability": "nonpayable",
      "type": "function"
    },
    {
      "inputs": [
        {
          "internalType": "address",
          "name": "",
          "type": "address"
        }
      ],
      "name": "whitelisted",
      "outputs": [
        {
          "internalType": "bool",
          "name": "",
          "type": "bool"
        }
      ],
      "stateMutability": "view",
      "type": "function",
      "constant": true
    },
    {
      "inputs": [
        {
          "internalType": "address",
          "name": "_to",
          "type": "address"
        },
        {
          "internalType": "uint256",
          "name": "_mintAmount",
          "type": "uint256"
        }
      ],
      "name": "mint",
      "outputs": [],
      "stateMutability": "payable",
      "type": "function",
      "payable": true
    },
    {
      "inputs": [
        {
          "internalType": "address",
          "name": "_owner",
          "type": "address"
        }
      ],
      "name": "walletOfOwner",
      "outputs": [
        {
          "internalType": "uint256[]",
          "name": "",
          "type": "uint256[]"
        }
      ],
      "stateMutability": "view",
      "type": "function",
      "constant": true
    },
    {
      "inputs": [
        {
          "internalType": "uint256",
          "name": "tokenId",
          "type": "uint256"
        }
      ],
      "name": "tokenURI",
      "outputs": [
        {
          "internalType": "string",
          "name": "",
          "type": "string"
        }
      ],
      "stateMutability": "view",
      "type": "function",
      "constant": true
    },
    {
      "inputs": [
        {
          "internalType": "uint256",
          "name": "_newCost",
          "type": "uint256"
        }
      ],
      "name": "setCost",
      "outputs": [],
      "stateMutability": "nonpayable",
      "type": "function"
    },
    {
      "inputs": [
        {
          "internalType": "uint256",
          "name": "_newmaxMintAmount",
          "type": "uint256"
        }
      ],
      "name": "setmaxMintAmount",
      "outputs": [],
      "stateMutability": "nonpayable",
      "type": "function"
    },
    {
      "inputs": [
        {
          "internalType": "string",
          "name": "_newBaseURI",
          "type": "string"
        }
      ],
      "name": "setBaseURI",
      "outputs": [],
      "stateMutability": "nonpayable",
      "type": "function"
    },
    {
      "inputs": [
        {
          "internalType": "string",
          "name": "_newBaseExtension",
          "type": "string"
        }
      ],
      "name": "setBaseExtension",
      "outputs": [],
      "stateMutability": "nonpayable",
      "type": "function"
    },
    {
      "inputs": [
        {
          "internalType": "bool",
          "name": "_state",
          "type": "bool"
        }
      ],
      "name": "pause",
      "outputs": [],
      "stateMutability": "nonpayable",
      "type": "function"
    },
    {
      "inputs": [
        {
          "internalType": "address",
          "name": "_user",
          "type": "address"
        }
      ],
      "name": "whitelistUser",
      "outputs": [],
      "stateMutability": "nonpayable",
      "type": "function"
    },
    {
      "inputs": [
        {
          "internalType": "address",
          "name": "_user",
          "type": "address"
        }
      ],
      "name": "removeWhitelistUser",
      "outputs": [],
      "stateMutability": "nonpayable",
      "type": "function"
    },
    {
      "inputs": [],
      "name": "withdraw",
      "outputs": [],
      "stateMutability": "payable",
      "type": "function",
      "payable": true
    }
  ],
  "bytecode": "0x60c06040526005608081905264173539b7b760d91b60a09081526200002891600c91906200085f565b5066470de4df820000600d55611387600e556014600f556010805460ff191690553480156200005657600080fd5b50604051620032c0380380620032c08339810160408190526200007991620009bf565b825183908390620000929060009060208501906200085f565b508051620000a89060019060208401906200085f565b505050620000c5620000bf620000e660201b60201c565b620000ea565b620000d0816200013c565b620000dd336001620001a4565b50505062000cec565b3390565b600a80546001600160a01b038381166001600160a01b0319831681179093556040519116919082907f8be0079c531659141344cd1fd0a4f28419497f9722a3daafe3b4186f6b6457e090600090a35050565b62000146620000e6565b6001600160a01b03166200015962000297565b6001600160a01b0316146200018b5760405162461bcd60e51b8152600401620001829062000baa565b60405180910390fd5b8051620001a090600b9060208401906200085f565b5050565b6000620001b0620002a6565b60105490915060ff1615620001c457600080fd5b60008211620001d257600080fd5b600f54821115620001e257600080fd5b600e54620001f1838362000bdf565b1115620001fd57600080fd5b6200020762000297565b6001600160a01b0316336001600160a01b0316146200025a573360009081526011602052604090205460ff1615156001146200025a5781600d546200024d919062000bfa565b3410156200025a57600080fd5b60015b82811162000291576200027c8462000276838562000bdf565b620002ac565b80620002888162000ca2565b9150506200025d565b50505050565b600a546001600160a01b031690565b60085490565b620001a0828260405180602001604052806000815250620002ce60201b60201c565b620002da83836200030d565b620002e96000848484620003f8565b620003085760405162461bcd60e51b8152600401620001829062000aa2565b505050565b6001600160a01b038216620003365760405162461bcd60e51b8152600401620001829062000b75565b620003418162000531565b15620003615760405162461bcd60e51b8152600401620001829062000af4565b6200036f600083836200054e565b6001600160a01b03821660009081526003602052604081208054600192906200039a90849062000bdf565b909155505060008181526002602052604080822080546001600160a01b0319166001600160a01b03861690811790915590518392907fddf252ad1be2c89b69c2b068fc378daa952ba7f163c4a11628f55a4df523b3ef908290a45050565b600062000419846001600160a01b0316620005f260201b620010961760201c565b1562000525576001600160a01b03841663150b7a0262000438620000e6565b8786866040518563ffffffff1660e01b81526004016200045c949392919062000a4c565b602060405180830381600087803b1580156200047757600080fd5b505af1925050508015620004aa575060408051601f3d908101601f19168201909252620004a7918101906200098e565b60015b6200050a573d808015620004db576040519150601f19603f3d011682016040523d82523d6000602084013e620004e0565b606091505b508051620005025760405162461bcd60e51b8152600401620001829062000aa2565b805181602001fd5b6001600160e01b031916630a85bd0160e11b14905062000529565b5060015b949350505050565b6000908152600260205260409020546001600160a01b0316151590565b620005668383836200030860201b620008321760201c565b6001600160a01b03831662000586576200058081620005f8565b620005ac565b816001600160a01b0316836001600160a01b031614620005ac57620005ac83826200063c565b6001600160a01b038216620005cc57620005c681620006e9565b62000308565b826001600160a01b0316826001600160a01b0316146200030857620003088282620007c7565b3b151590565b600880546000838152600960205260408120829055600182018355919091527ff3f7a9fe364faab93b216da50a3214154f22a0a2b415b23a84c8169e8b636ee30155565b6000600162000656846200081860201b62000dbe1760201c565b62000662919062000c1c565b600083815260076020526040902054909150808214620006b6576001600160a01b03841660009081526006602090815260408083208584528252808320548484528184208190558352600790915290208190555b5060009182526007602090815260408084208490556001600160a01b039094168352600681528383209183525290812055565b600854600090620006fd9060019062000c1c565b600083815260096020526040812054600880549394509092849081106200073457634e487b7160e01b600052603260045260246000fd5b9060005260206000200154905080600883815481106200076457634e487b7160e01b600052603260045260246000fd5b6000918252602080832090910192909255828152600990915260408082208490558582528120556008805480620007ab57634e487b7160e01b600052603160045260246000fd5b6001900381819060005260206000200160009055905550505050565b6000620007df836200081860201b62000dbe1760201c565b6001600160a01b039093166000908152600660209081526040808320868452825280832085905593825260079052919091209190915550565b60006001600160a01b038216620008435760405162461bcd60e51b8152600401620001829062000b2b565b506001600160a01b031660009081526003602052604090205490565b8280546200086d9062000c65565b90600052602060002090601f016020900481019282620008915760008555620008dc565b82601f10620008ac57805160ff1916838001178555620008dc565b82800160010185558215620008dc579182015b82811115620008dc578251825591602001919060010190620008bf565b50620008ea929150620008ee565b5090565b5b80821115620008ea5760008155600101620008ef565b600082601f83011262000916578081fd5b81516001600160401b038082111562000933576200093362000cd6565b604051601f8301601f1916810160200182811182821017156200095a576200095a62000cd6565b60405282815284830160200186101562000972578384fd5b6200098583602083016020880162000c36565b95945050505050565b600060208284031215620009a0578081fd5b81516001600160e01b031981168114620009b8578182fd5b9392505050565b600080600060608486031215620009d4578182fd5b83516001600160401b0380821115620009eb578384fd5b620009f98783880162000905565b9450602086015191508082111562000a0f578384fd5b62000a1d8783880162000905565b9350604086015191508082111562000a33578283fd5b5062000a428682870162000905565b9150509250925092565b600060018060a01b03808716835280861660208401525083604083015260806060830152825180608084015262000a8b8160a085016020870162000c36565b601f01601f19169190910160a00195945050505050565b60208082526032908201527f4552433732313a207472616e7366657220746f206e6f6e20455243373231526560408201527131b2b4bb32b91034b6b83632b6b2b73a32b960711b606082015260800190565b6020808252601c908201527f4552433732313a20746f6b656e20616c7265616479206d696e74656400000000604082015260600190565b6020808252602a908201527f4552433732313a2062616c616e636520717565727920666f7220746865207a65604082015269726f206164647265737360b01b606082015260800190565b6020808252818101527f4552433732313a206d696e7420746f20746865207a65726f2061646472657373604082015260600190565b6020808252818101527f4f776e61626c653a2063616c6c6572206973206e6f7420746865206f776e6572604082015260600190565b6000821982111562000bf55762000bf562000cc0565b500190565b600081600019048311821515161562000c175762000c1762000cc0565b500290565b60008282101562000c315762000c3162000cc0565b500390565b60005b8381101562000c5357818101518382015260200162000c39565b83811115620002915750506000910152565b60028104600182168062000c7a57607f821691505b6020821081141562000c9c57634e487b7160e01b600052602260045260246000fd5b50919050565b600060001982141562000cb95762000cb962000cc0565b5060010190565b634e487b7160e01b600052601160045260246000fd5b634e487b7160e01b600052604160045260246000fd5b6125c48062000cfc6000396000f3fe60806040526004361061020f5760003560e01c806355f804b311610118578063a22cb465116100a0578063d5abeb011161006f578063d5abeb01146105ad578063d936547e146105c2578063da3ef23f146105e2578063e985e9c514610602578063f2fde38b146106225761020f565b8063a22cb46514610538578063b88d4fde14610558578063c668286214610578578063c87b56dd1461058d5761020f565b806370a08231116100e757806370a08231146104b9578063715018a6146104d95780637f00c7a6146104ee5780638da5cb5b1461050e57806395d89b41146105235761020f565b806355f804b31461044f5780635c975abb1461046f5780636352211e146104845780636c0360eb146104a45761020f565b80632f745c591161019b57806342842e0e1161016a57806342842e0e146103a2578063438b6300146103c257806344a0d68a146103ef5780634a4c560d1461040f5780634f6ccce71461042f5761020f565b80632f745c591461034757806330cc7ae0146103675780633ccfd60b1461038757806340c10f191461038f5761020f565b8063095ea7b3116101e2578063095ea7b3146102bb57806313faede6146102db57806318160ddd146102fd578063239c70ae1461031257806323b872dd146103275761020f565b806301ffc9a71461021457806302329a291461024a57806306fdde031461026c578063081812fc1461028e575b600080fd5b34801561022057600080fd5b5061023461022f366004611cf2565b610642565b6040516102419190611f0e565b60405180910390f35b34801561025657600080fd5b5061026a610265366004611cd8565b61066f565b005b34801561027857600080fd5b506102816106ca565b6040516102419190611f19565b34801561029a57600080fd5b506102ae6102a9366004611d70565b61075c565b6040516102419190611e79565b3480156102c757600080fd5b5061026a6102d6366004611caf565b61079f565b3480156102e757600080fd5b506102f0610837565b6040516102419190612429565b34801561030957600080fd5b506102f061083d565b34801561031e57600080fd5b506102f0610843565b34801561033357600080fd5b5061026a610342366004611bd2565b610849565b34801561035357600080fd5b506102f0610362366004611caf565b610881565b34801561037357600080fd5b5061026a610382366004611b86565b6108d3565b61026a610933565b61026a61039d366004611caf565b6109e5565b3480156103ae57600080fd5b5061026a6103bd366004611bd2565b610ac1565b3480156103ce57600080fd5b506103e26103dd366004611b86565b610adc565b6040516102419190611eca565b3480156103fb57600080fd5b5061026a61040a366004611d70565b610b9a565b34801561041b57600080fd5b5061026a61042a366004611b86565b610bde565b34801561043b57600080fd5b506102f061044a366004611d70565b610c41565b34801561045b57600080fd5b5061026a61046a366004611d2a565b610c9c565b34801561047b57600080fd5b50610234610cf2565b34801561049057600080fd5b506102ae61049f366004611d70565b610cfb565b3480156104b057600080fd5b50610281610d30565b3480156104c557600080fd5b506102f06104d4366004611b86565b610dbe565b3480156104e557600080fd5b5061026a610e02565b3480156104fa57600080fd5b5061026a610509366004611d70565b610e4d565b34801561051a57600080fd5b506102ae610e91565b34801561052f57600080fd5b50610281610ea0565b34801561054457600080fd5b5061026a610553366004611c86565b610eaf565b34801561056457600080fd5b5061026a610573366004611c0d565b610ec1565b34801561058457600080fd5b50610281610efa565b34801561059957600080fd5b506102816105a8366004611d70565b610f07565b3480156105b957600080fd5b506102f0610f8d565b3480156105ce57600080fd5b506102346105dd366004611b86565b610f93565b3480156105ee57600080fd5b5061026a6105fd366004611d2a565b610fa8565b34801561060e57600080fd5b5061023461061d366004611ba0565b610ffa565b34801561062e57600080fd5b5061026a61063d366004611b86565b611028565b60006001600160e01b0319821663780e9d6360e01b148061066757506106678261109c565b90505b919050565b6106776110dc565b6001600160a01b0316610688610e91565b6001600160a01b0316146106b75760405162461bcd60e51b81526004016106ae9061227e565b60405180910390fd5b6010805460ff1916911515919091179055565b6060600080546106d9906124cc565b80601f0160208091040260200160405190810160405280929190818152602001828054610705906124cc565b80156107525780601f1061072757610100808354040283529160200191610752565b820191906000526020600020905b81548152906001019060200180831161073557829003601f168201915b5050505050905090565b6000610767826110e0565b6107835760405162461bcd60e51b81526004016106ae90612232565b506000908152600460205260409020546001600160a01b031690565b60006107aa82610cfb565b9050806001600160a01b0316836001600160a01b031614156107de5760405162461bcd60e51b81526004016106ae9061234b565b806001600160a01b03166107f06110dc565b6001600160a01b0316148061080c575061080c8161061d6110dc565b6108285760405162461bcd60e51b81526004016106ae9061210d565b61083283836110fd565b505050565b600d5481565b60085490565b600f5481565b61085a6108546110dc565b8261116b565b6108765760405162461bcd60e51b81526004016106ae9061238c565b6108328383836111f0565b600061088c83610dbe565b82106108aa5760405162461bcd60e51b81526004016106ae90611f2c565b506001600160a01b03919091166000908152600660209081526040808320938352929052205490565b6108db6110dc565b6001600160a01b03166108ec610e91565b6001600160a01b0316146109125760405162461bcd60e51b81526004016106ae9061227e565b6001600160a01b03166000908152601160205260409020805460ff19169055565b61093b6110dc565b6001600160a01b031661094c610e91565b6001600160a01b0316146109725760405162461bcd60e51b81526004016106ae9061227e565b600061097c610e91565b6001600160a01b03164760405161099290611e76565b60006040518083038185875af1925050503d80600081146109cf576040519150601f19603f3d011682016040523d82523d6000602084013e6109d4565b606091505b50509050806109e257600080fd5b50565b60006109ef61083d565b60105490915060ff1615610a0257600080fd5b60008211610a0f57600080fd5b600f54821115610a1e57600080fd5b600e54610a2b838361243e565b1115610a3657600080fd5b610a3e610e91565b6001600160a01b0316336001600160a01b031614610a8c573360009081526011602052604090205460ff161515600114610a8c5781600d54610a80919061246a565b341015610a8c57600080fd5b60015b828111610abb57610aa984610aa4838561243e565b61131d565b80610ab381612507565b915050610a8f565b50505050565b61083283838360405180602001604052806000815250610ec1565b60606000610ae983610dbe565b905060008167ffffffffffffffff811115610b1457634e487b7160e01b600052604160045260246000fd5b604051908082528060200260200182016040528015610b3d578160200160208202803683370190505b50905060005b82811015610b9257610b558582610881565b828281518110610b7557634e487b7160e01b600052603260045260246000fd5b602090810291909101015280610b8a81612507565b915050610b43565b509392505050565b610ba26110dc565b6001600160a01b0316610bb3610e91565b6001600160a01b031614610bd95760405162461bcd60e51b81526004016106ae9061227e565b600d55565b610be66110dc565b6001600160a01b0316610bf7610e91565b6001600160a01b031614610c1d5760405162461bcd60e51b81526004016106ae9061227e565b6001600160a01b03166000908152601160205260409020805460ff19166001179055565b6000610c4b61083d565b8210610c695760405162461bcd60e51b81526004016106ae906123dd565b60088281548110610c8a57634e487b7160e01b600052603260045260246000fd5b90600052602060002001549050919050565b610ca46110dc565b6001600160a01b0316610cb5610e91565b6001600160a01b031614610cdb5760405162461bcd60e51b81526004016106ae9061227e565b8051610cee90600b906020840190611a56565b5050565b60105460ff1681565b6000818152600260205260408120546001600160a01b0316806106675760405162461bcd60e51b81526004016106ae906121b4565b600b8054610d3d906124cc565b80601f0160208091040260200160405190810160405280929190818152602001828054610d69906124cc565b8015610db65780601f10610d8b57610100808354040283529160200191610db6565b820191906000526020600020905b815481529060010190602001808311610d9957829003601f168201915b505050505081565b60006001600160a01b038216610de65760405162461bcd60e51b81526004016106ae9061216a565b506001600160a01b031660009081526003602052604090205490565b610e0a6110dc565b6001600160a01b0316610e1b610e91565b6001600160a01b031614610e415760405162461bcd60e51b81526004016106ae9061227e565b610e4b6000611337565b565b610e556110dc565b6001600160a01b0316610e66610e91565b6001600160a01b031614610e8c5760405162461bcd60e51b81526004016106ae9061227e565b600f55565b600a546001600160a01b031690565b6060600180546106d9906124cc565b610cee610eba6110dc565b8383611389565b610ed2610ecc6110dc565b8361116b565b610eee5760405162461bcd60e51b81526004016106ae9061238c565b610abb8484848461142c565b600c8054610d3d906124cc565b6060610f12826110e0565b610f2e5760405162461bcd60e51b81526004016106ae906122fc565b6000610f3861145f565b90506000815111610f585760405180602001604052806000815250610f86565b80610f628461146e565b600c604051602001610f7693929190611db4565b6040516020818303038152906040525b9392505050565b600e5481565b60116020526000908152604090205460ff1681565b610fb06110dc565b6001600160a01b0316610fc1610e91565b6001600160a01b031614610fe75760405162461bcd60e51b81526004016106ae9061227e565b8051610cee90600c906020840190611a56565b6001600160a01b03918216600090815260056020908152604080832093909416825291909152205460ff1690565b6110306110dc565b6001600160a01b0316611041610e91565b6001600160a01b0316146110675760405162461bcd60e51b81526004016106ae9061227e565b6001600160a01b03811661108d5760405162461bcd60e51b81526004016106ae90611fc9565b6109e281611337565b3b151590565b60006001600160e01b031982166380ac58cd60e01b14806110cd57506001600160e01b03198216635b5e139f60e01b145b80610667575061066782611589565b3390565b6000908152600260205260409020546001600160a01b0316151590565b600081815260046020526040902080546001600160a01b0319166001600160a01b038416908117909155819061113282610cfb565b6001600160a01b03167f8c5be1e5ebec7d5bd14f71427d1e84f3dd0314c0f7b2291e5b200ac8c7c3b92560405160405180910390a45050565b6000611176826110e0565b6111925760405162461bcd60e51b81526004016106ae906120c1565b600061119d83610cfb565b9050806001600160a01b0316846001600160a01b031614806111d85750836001600160a01b03166111cd8461075c565b6001600160a01b0316145b806111e857506111e88185610ffa565b949350505050565b826001600160a01b031661120382610cfb565b6001600160a01b0316146112295760405162461bcd60e51b81526004016106ae906122b3565b6001600160a01b03821661124f5760405162461bcd60e51b81526004016106ae90612046565b61125a8383836115a2565b6112656000826110fd565b6001600160a01b038316600090815260036020526040812080546001929061128e908490612489565b90915550506001600160a01b03821660009081526003602052604081208054600192906112bc90849061243e565b909155505060008181526002602052604080822080546001600160a01b0319166001600160a01b0386811691821790925591518493918716917fddf252ad1be2c89b69c2b068fc378daa952ba7f163c4a11628f55a4df523b3ef91a4505050565b610cee82826040518060200160405280600081525061162b565b600a80546001600160a01b038381166001600160a01b0319831681179093556040519116919082907f8be0079c531659141344cd1fd0a4f28419497f9722a3daafe3b4186f6b6457e090600090a35050565b816001600160a01b0316836001600160a01b031614156113bb5760405162461bcd60e51b81526004016106ae9061208a565b6001600160a01b0383811660008181526005602090815260408083209487168084529490915290819020805460ff1916851515179055517f17307eab39ab6107e8899845ad3d59bd9653f200f220920489ca2b5937696c319061141f908590611f0e565b60405180910390a3505050565b6114378484846111f0565b6114438484848461165e565b610abb5760405162461bcd60e51b81526004016106ae90611f77565b6060600b80546106d9906124cc565b60608161149357506040805180820190915260018152600360fc1b602082015261066a565b8160005b81156114bd57806114a781612507565b91506114b69050600a83612456565b9150611497565b60008167ffffffffffffffff8111156114e657634e487b7160e01b600052604160045260246000fd5b6040519080825280601f01601f191660200182016040528015611510576020820181803683370190505b5090505b84156111e857611525600183612489565b9150611532600a86612522565b61153d90603061243e565b60f81b81838151811061156057634e487b7160e01b600052603260045260246000fd5b60200101906001600160f81b031916908160001a905350611582600a86612456565b9450611514565b6001600160e01b031981166301ffc9a760e01b14919050565b6115ad838383610832565b6001600160a01b0383166115c9576115c481611779565b6115ec565b816001600160a01b0316836001600160a01b0316146115ec576115ec83826117bd565b6001600160a01b038216611608576116038161185a565b610832565b826001600160a01b0316826001600160a01b031614610832576108328282611933565b6116358383611977565b611642600084848461165e565b6108325760405162461bcd60e51b81526004016106ae90611f77565b6000611672846001600160a01b0316611096565b1561176e57836001600160a01b031663150b7a0261168e6110dc565b8786866040518563ffffffff1660e01b81526004016116b09493929190611e8d565b602060405180830381600087803b1580156116ca57600080fd5b505af19250505080156116fa575060408051601f3d908101601f191682019092526116f791810190611d0e565b60015b611754573d808015611728576040519150601f19603f3d011682016040523d82523d6000602084013e61172d565b606091505b50805161174c5760405162461bcd60e51b81526004016106ae90611f77565b805181602001fd5b6001600160e01b031916630a85bd0160e11b1490506111e8565b506001949350505050565b600880546000838152600960205260408120829055600182018355919091527ff3f7a9fe364faab93b216da50a3214154f22a0a2b415b23a84c8169e8b636ee30155565b600060016117ca84610dbe565b6117d49190612489565b600083815260076020526040902054909150808214611827576001600160a01b03841660009081526006602090815260408083208584528252808320548484528184208190558352600790915290208190555b5060009182526007602090815260408084208490556001600160a01b039094168352600681528383209183525290812055565b60085460009061186c90600190612489565b600083815260096020526040812054600880549394509092849081106118a257634e487b7160e01b600052603260045260246000fd5b9060005260206000200154905080600883815481106118d157634e487b7160e01b600052603260045260246000fd5b600091825260208083209091019290925582815260099091526040808220849055858252812055600880548061191757634e487b7160e01b600052603160045260246000fd5b6001900381819060005260206000200160009055905550505050565b600061193e83610dbe565b6001600160a01b039093166000908152600660209081526040808320868452825280832085905593825260079052919091209190915550565b6001600160a01b03821661199d5760405162461bcd60e51b81526004016106ae906121fd565b6119a6816110e0565b156119c35760405162461bcd60e51b81526004016106ae9061200f565b6119cf600083836115a2565b6001600160a01b03821660009081526003602052604081208054600192906119f890849061243e565b909155505060008181526002602052604080822080546001600160a01b0319166001600160a01b03861690811790915590518392907fddf252ad1be2c89b69c2b068fc378daa952ba7f163c4a11628f55a4df523b3ef908290a45050565b828054611a62906124cc565b90600052602060002090601f016020900481019282611a845760008555611aca565b82601f10611a9d57805160ff1916838001178555611aca565b82800160010185558215611aca579182015b82811115611aca578251825591602001919060010190611aaf565b50611ad6929150611ada565b5090565b5b80821115611ad65760008155600101611adb565b600067ffffffffffffffff80841115611b0a57611b0a612562565b604051601f8501601f191681016020018281118282101715611b2e57611b2e612562565b604052848152915081838501861015611b4657600080fd5b8484602083013760006020868301015250509392505050565b80356001600160a01b038116811461066a57600080fd5b8035801515811461066a57600080fd5b600060208284031215611b97578081fd5b610f8682611b5f565b60008060408385031215611bb2578081fd5b611bbb83611b5f565b9150611bc960208401611b5f565b90509250929050565b600080600060608486031215611be6578081fd5b611bef84611b5f565b9250611bfd60208501611b5f565b9150604084013590509250925092565b60008060008060808587031215611c22578081fd5b611c2b85611b5f565b9350611c3960208601611b5f565b925060408501359150606085013567ffffffffffffffff811115611c5b578182fd5b8501601f81018713611c6b578182fd5b611c7a87823560208401611aef565b91505092959194509250565b60008060408385031215611c98578182fd5b611ca183611b5f565b9150611bc960208401611b76565b60008060408385031215611cc1578182fd5b611cca83611b5f565b946020939093013593505050565b600060208284031215611ce9578081fd5b610f8682611b76565b600060208284031215611d03578081fd5b8135610f8681612578565b600060208284031215611d1f578081fd5b8151610f8681612578565b600060208284031215611d3b578081fd5b813567ffffffffffffffff811115611d51578182fd5b8201601f81018413611d61578182fd5b6111e884823560208401611aef565b600060208284031215611d81578081fd5b5035919050565b60008151808452611da08160208601602086016124a0565b601f01601f19169290920160200192915050565b600084516020611dc78285838a016124a0565b855191840191611dda8184848a016124a0565b8554920191839060028104600180831680611df657607f831692505b858310811415611e1457634e487b7160e01b88526022600452602488fd5b808015611e285760018114611e3957611e65565b60ff19851688528388019550611e65565b611e428b612432565b895b85811015611e5d5781548a820152908401908801611e44565b505083880195505b50939b9a5050505050505050505050565b90565b6001600160a01b0391909116815260200190565b6001600160a01b0385811682528416602082015260408101839052608060608201819052600090611ec090830184611d88565b9695505050505050565b6020808252825182820181905260009190848201906040850190845b81811015611f0257835183529284019291840191600101611ee6565b50909695505050505050565b901515815260200190565b600060208252610f866020830184611d88565b6020808252602b908201527f455243373231456e756d657261626c653a206f776e657220696e646578206f7560408201526a74206f6620626f756e647360a81b606082015260800190565b60208082526032908201527f4552433732313a207472616e7366657220746f206e6f6e20455243373231526560408201527131b2b4bb32b91034b6b83632b6b2b73a32b960711b606082015260800190565b60208082526026908201527f4f776e61626c653a206e6577206f776e657220697320746865207a65726f206160408201526564647265737360d01b606082015260800190565b6020808252601c908201527f4552433732313a20746f6b656e20616c7265616479206d696e74656400000000604082015260600190565b60208082526024908201527f4552433732313a207472616e7366657220746f20746865207a65726f206164646040820152637265737360e01b606082015260800190565b60208082526019908201527f4552433732313a20617070726f766520746f2063616c6c657200000000000000604082015260600190565b6020808252602c908201527f4552433732313a206f70657261746f7220717565727920666f72206e6f6e657860408201526b34b9ba32b73a103a37b5b2b760a11b606082015260800190565b60208082526038908201527f4552433732313a20617070726f76652063616c6c6572206973206e6f74206f7760408201527f6e6572206e6f7220617070726f76656420666f7220616c6c0000000000000000606082015260800190565b6020808252602a908201527f4552433732313a2062616c616e636520717565727920666f7220746865207a65604082015269726f206164647265737360b01b606082015260800190565b60208082526029908201527f4552433732313a206f776e657220717565727920666f72206e6f6e657869737460408201526832b73a103a37b5b2b760b91b606082015260800190565b6020808252818101527f4552433732313a206d696e7420746f20746865207a65726f2061646472657373604082015260600190565b6020808252602c908201527f4552433732313a20617070726f76656420717565727920666f72206e6f6e657860408201526b34b9ba32b73a103a37b5b2b760a11b606082015260800190565b6020808252818101527f4f776e61626c653a2063616c6c6572206973206e6f7420746865206f776e6572604082015260600190565b60208082526029908201527f4552433732313a207472616e73666572206f6620746f6b656e2074686174206960408201526839903737ba1037bbb760b91b606082015260800190565b6020808252602f908201527f4552433732314d657461646174613a2055524920717565727920666f72206e6f60408201526e3732bc34b9ba32b73a103a37b5b2b760891b606082015260800190565b60208082526021908201527f4552433732313a20617070726f76616c20746f2063757272656e74206f776e656040820152603960f91b606082015260800190565b60208082526031908201527f4552433732313a207472616e736665722063616c6c6572206973206e6f74206f6040820152701ddb995c881b9bdc88185c1c1c9bdd9959607a1b606082015260800190565b6020808252602c908201527f455243373231456e756d657261626c653a20676c6f62616c20696e646578206f60408201526b7574206f6620626f756e647360a01b606082015260800190565b90815260200190565b60009081526020902090565b6000821982111561245157612451612536565b500190565b6000826124655761246561254c565b500490565b600081600019048311821515161561248457612484612536565b500290565b60008282101561249b5761249b612536565b500390565b60005b838110156124bb5781810151838201526020016124a3565b83811115610abb5750506000910152565b6002810460018216806124e057607f821691505b6020821081141561250157634e487b7160e01b600052602260045260246000fd5b50919050565b600060001982141561251b5761251b612536565b5060010190565b6000826125315761253161254c565b500690565b634e487b7160e01b600052601160045260246000fd5b634e487b7160e01b600052601260045260246000fd5b634e487b7160e01b600052604160045260246000fd5b6001600160e01b0319811681146109e257600080fdfea26469706673582212203f3961a09a815dca80ae6887a26c38d15288c4c759fd8952f72405421e8b2c1664736f6c63430008000033",
  "immutableReferences": {},
  "source": "//SPDX-License-Identifier: MIT\n\npragma solidity >=0.7.0 <0.9.0;\n\n\nimport \"@openzeppelin/contracts/token/ERC721/extensions/ERC721Enumerable.sol\";\nimport \"@openzeppelin/contracts/access/Ownable.sol\";\n\ncontract SmartContract is ERC721Enumerable, Ownable {\n  using Strings for uint256;\n\n  string public baseURI;\n  string public baseExtension = \".json\";\n  uint256 public cost = 0.02 ether;\n  uint256 public maxSupply = 4999;\n  uint256 public maxMintAmount = 20;\n  bool public paused = false;\n  mapping(address => bool) public whitelisted;\n\n  constructor(\n    string memory _name,\n    string memory _symbol,\n    string memory _initBaseURI\n  ) ERC721(_name, _symbol) {\n    setBaseURI(_initBaseURI);\n    mint(msg.sender, 1);\n  }\n\n  // internal\n  function _baseURI() internal view virtual override returns (string memory) {\n    return baseURI;\n  }\n\n  // public\n  function mint(address _to, uint256 _mintAmount) public payable {\n    uint256 supply = totalSupply();\n    require(!paused);\n    require(_mintAmount > 0);\n    require(_mintAmount <= maxMintAmount);\n    require(supply + _mintAmount <= maxSupply);\n\n    if (msg.sender != owner()) {\n        if(whitelisted[msg.sender] != true) {\n          require(msg.value >= cost * _mintAmount);\n        }\n    }\n\n    for (uint256 i = 1; i <= _mintAmount; i++) {\n      _safeMint(_to, supply + i);\n    }\n  }\n\n  function walletOfOwner(address _owner)\n    public\n    view\n    returns (uint256[] memory)\n  {\n    uint256 ownerTokenCount = balanceOf(_owner);\n    uint256[] memory tokenIds = new uint256[](ownerTokenCount);\n    for (uint256 i; i < ownerTokenCount; i++) {\n      tokenIds[i] = tokenOfOwnerByIndex(_owner, i);\n    }\n    return tokenIds;\n  }\n\n  function tokenURI(uint256 tokenId)\n    public\n    view\n    virtual\n    override\n    returns (string memory)\n  {\n    require(\n      _exists(tokenId),\n      \"ERC721Metadata: URI query for nonexistent token\"\n    );\n\n    string memory currentBaseURI = _baseURI();\n    return bytes(currentBaseURI).length > 0\n        ? string(abi.encodePacked(currentBaseURI, tokenId.toString(), baseExtension))\n        : \"\";\n  }\n\n  //only owner\n  function setCost(uint256 _newCost) public onlyOwner {\n    cost = _newCost;\n  }\n\n  function setmaxMintAmount(uint256 _newmaxMintAmount) public onlyOwner {\n    maxMintAmount = _newmaxMintAmount;\n  }\n\n  function setBaseURI(string memory _newBaseURI) public onlyOwner {\n    baseURI = _newBaseURI;\n  }\n\n  function setBaseExtension(string memory _newBaseExtension) public onlyOwner {\n    baseExtension = _newBaseExtension;\n  }\n\n  function pause(bool _state) public onlyOwner {\n    paused = _state;\n  }\n \n function whitelistUser(address _user) public onlyOwner {\n    whitelisted[_user] = true;\n  }\n \n  function removeWhitelistUser(address _user) public onlyOwner {\n    whitelisted[_user] = false;\n  }\n\n  function withdraw() public payable onlyOwner {\n    // This will payout the owner 95% of the contract balance.\n    // Do not remove this otherwise you will not be able to withdraw the funds.\n    // =============================================================================\n    (bool os, ) = payable(owner()).call{value: address(this).balance}(\"\");\n    require(os);\n    // =============================================================================\n  }\n}",
  "sourcePath": "C:\\Users\\Alejandro Vera\\Desktop\\frontend_base_dapp-main\\contracts\\SmartContract.sol",
  "compiler": {
    "name": "solc",
    "version": "0.8.0+commit.c7dfd78e.Emscripten.clang"
  },
  "schemaVersion": "3.4.3",
  "updatedAt": "2021-12-03T23:43:02.816Z",
  "networkType": "ethereum",
  "devdoc": {
    "kind": "dev",
    "methods": {
      "approve(address,uint256)": {
        "details": "See {IERC721-approve}."
      },
      "balanceOf(address)": {
        "details": "See {IERC721-balanceOf}."
      },
      "getApproved(uint256)": {
        "details": "See {IERC721-getApproved}."
      },
      "isApprovedForAll(address,address)": {
        "details": "See {IERC721-isApprovedForAll}."
      },
      "name()": {
        "details": "See {IERC721Metadata-name}."
      },
      "owner()": {
        "details": "Returns the address of the current owner."
      },
      "ownerOf(uint256)": {
        "details": "See {IERC721-ownerOf}."
      },
      "renounceOwnership()": {
        "details": "Leaves the contract without owner. It will not be possible to call `onlyOwner` functions anymore. Can only be called by the current owner. NOTE: Renouncing ownership will leave the contract without an owner, thereby removing any functionality that is only available to the owner."
      },
      "safeTransferFrom(address,address,uint256)": {
        "details": "See {IERC721-safeTransferFrom}."
      },
      "safeTransferFrom(address,address,uint256,bytes)": {
        "details": "See {IERC721-safeTransferFrom}."
      },
      "setApprovalForAll(address,bool)": {
        "details": "See {IERC721-setApprovalForAll}."
      },
      "supportsInterface(bytes4)": {
        "details": "See {IERC165-supportsInterface}."
      },
      "symbol()": {
        "details": "See {IERC721Metadata-symbol}."
      },
      "tokenByIndex(uint256)": {
        "details": "See {IERC721Enumerable-tokenByIndex}."
      },
      "tokenOfOwnerByIndex(address,uint256)": {
        "details": "See {IERC721Enumerable-tokenOfOwnerByIndex}."
      },
      "tokenURI(uint256)": {
        "details": "See {IERC721Metadata-tokenURI}."
      },
      "totalSupply()": {
        "details": "See {IERC721Enumerable-totalSupply}."
      },
      "transferFrom(address,address,uint256)": {
        "details": "See {IERC721-transferFrom}."
      },
      "transferOwnership(address)": {
        "details": "Transfers ownership of the contract to a new account (`newOwner`). Can only be called by the current owner."
      }
    },
    "version": 1
  },
  "userdoc": {
    "kind": "user",
    "methods": {},
    "version": 1
  }
}